{
  "contractName": "Staking",
  "abi": [
    {
      "inputs": [
        {
          "internalType": "address",
          "name": "_nftAddress",
          "type": "address"
        }
      ],
      "stateMutability": "nonpayable",
      "type": "constructor"
    },
    {
      "anonymous": false,
      "inputs": [
        {
          "indexed": true,
          "internalType": "address",
          "name": "previousOwner",
          "type": "address"
        },
        {
          "indexed": true,
          "internalType": "address",
          "name": "newOwner",
          "type": "address"
        }
      ],
      "name": "OwnershipTransferred",
      "type": "event"
    },
    {
      "inputs": [],
      "name": "STAKINGREWARD",
      "outputs": [
        {
          "internalType": "uint256",
          "name": "",
          "type": "uint256"
        }
      ],
      "stateMutability": "view",
      "type": "function",
      "constant": true
    },
    {
      "inputs": [],
      "name": "STAKINGREWARD_1to1",
      "outputs": [
        {
          "internalType": "uint256",
          "name": "",
          "type": "uint256"
        }
      ],
      "stateMutability": "view",
      "type": "function",
      "constant": true
    },
    {
      "inputs": [
        {
          "internalType": "address",
          "name": "",
          "type": "address"
        }
      ],
      "name": "allowedList",
      "outputs": [
        {
          "internalType": "bool",
          "name": "",
          "type": "bool"
        }
      ],
      "stateMutability": "view",
      "type": "function",
      "constant": true
    },
    {
      "inputs": [
        {
          "internalType": "address",
          "name": "",
          "type": "address"
        }
      ],
      "name": "lastClaimTime",
      "outputs": [
        {
          "internalType": "uint256",
          "name": "",
          "type": "uint256"
        }
      ],
      "stateMutability": "view",
      "type": "function",
      "constant": true
    },
    {
      "inputs": [],
      "name": "nft",
      "outputs": [
        {
          "internalType": "contract IERC721",
          "name": "",
          "type": "address"
        }
      ],
      "stateMutability": "view",
      "type": "function",
      "constant": true
    },
    {
      "inputs": [
        {
          "internalType": "address",
          "name": "",
          "type": "address"
        }
      ],
      "name": "number1to1TokensStaked",
      "outputs": [
        {
          "internalType": "uint256",
          "name": "",
          "type": "uint256"
        }
      ],
      "stateMutability": "view",
      "type": "function",
      "constant": true
    },
    {
      "inputs": [
        {
          "internalType": "address",
          "name": "",
          "type": "address"
        }
      ],
      "name": "numberTokensStaked",
      "outputs": [
        {
          "internalType": "uint256",
          "name": "",
          "type": "uint256"
        }
      ],
      "stateMutability": "view",
      "type": "function",
      "constant": true
    },
    {
      "inputs": [],
      "name": "owner",
      "outputs": [
        {
          "internalType": "address",
          "name": "",
          "type": "address"
        }
      ],
      "stateMutability": "view",
      "type": "function",
      "constant": true
    },
    {
      "inputs": [
        {
          "internalType": "address",
          "name": "",
          "type": "address"
        },
        {
          "internalType": "uint256",
          "name": "",
          "type": "uint256"
        }
      ],
      "name": "ownerTokenIds",
      "outputs": [
        {
          "internalType": "uint256",
          "name": "",
          "type": "uint256"
        }
      ],
      "stateMutability": "view",
      "type": "function",
      "constant": true
    },
    {
      "inputs": [],
      "name": "renounceOwnership",
      "outputs": [],
      "stateMutability": "nonpayable",
      "type": "function"
    },
    {
      "inputs": [
        {
          "internalType": "uint256",
          "name": "",
          "type": "uint256"
        }
      ],
      "name": "tokenIdOwners",
      "outputs": [
        {
          "internalType": "address",
          "name": "",
          "type": "address"
        }
      ],
      "stateMutability": "view",
      "type": "function",
      "constant": true
    },
    {
      "inputs": [],
      "name": "totalNftStaked",
      "outputs": [
        {
          "internalType": "uint256",
          "name": "",
          "type": "uint256"
        }
      ],
      "stateMutability": "view",
      "type": "function",
      "constant": true
    },
    {
      "inputs": [
        {
          "internalType": "address",
          "name": "newOwner",
          "type": "address"
        }
      ],
      "name": "transferOwnership",
      "outputs": [],
      "stateMutability": "nonpayable",
      "type": "function"
    },
    {
      "inputs": [
        {
          "internalType": "address",
          "name": "val",
          "type": "address"
        },
        {
          "internalType": "bool",
          "name": "permission",
          "type": "bool"
        }
      ],
      "name": "editAllowList",
      "outputs": [],
      "stateMutability": "nonpayable",
      "type": "function"
    },
    {
      "inputs": [
        {
          "internalType": "address",
          "name": "_to",
          "type": "address"
        },
        {
          "internalType": "uint256",
          "name": "val",
          "type": "uint256"
        }
      ],
      "name": "addPoints",
      "outputs": [],
      "stateMutability": "nonpayable",
      "type": "function"
    },
    {
      "inputs": [
        {
          "internalType": "address",
          "name": "_to",
          "type": "address"
        },
        {
          "internalType": "uint256",
          "name": "val",
          "type": "uint256"
        }
      ],
      "name": "removePoints",
      "outputs": [],
      "stateMutability": "nonpayable",
      "type": "function"
    },
    {
      "inputs": [
        {
          "internalType": "uint256",
          "name": "num",
          "type": "uint256"
        }
      ],
      "name": "is_1to1",
      "outputs": [
        {
          "internalType": "bool",
          "name": "",
          "type": "bool"
        }
      ],
      "stateMutability": "view",
      "type": "function",
      "constant": true
    },
    {
      "inputs": [
        {
          "internalType": "uint256",
          "name": "val",
          "type": "uint256"
        }
      ],
      "name": "set_Staking_Reward_In_Wei",
      "outputs": [],
      "stateMutability": "nonpayable",
      "type": "function"
    },
    {
      "inputs": [
        {
          "internalType": "address",
          "name": "val",
          "type": "address"
        }
      ],
      "name": "setNftAddress",
      "outputs": [],
      "stateMutability": "nonpayable",
      "type": "function"
    },
    {
      "inputs": [
        {
          "internalType": "address",
          "name": "account",
          "type": "address"
        }
      ],
      "name": "getPerDayLegendayRewards",
      "outputs": [
        {
          "internalType": "uint256",
          "name": "",
          "type": "uint256"
        }
      ],
      "stateMutability": "view",
      "type": "function",
      "constant": true
    },
    {
      "inputs": [
        {
          "internalType": "address",
          "name": "account",
          "type": "address"
        }
      ],
      "name": "rewardsPerDay",
      "outputs": [
        {
          "internalType": "uint256",
          "name": "",
          "type": "uint256"
        }
      ],
      "stateMutability": "view",
      "type": "function",
      "constant": true
    },
    {
      "inputs": [
        {
          "internalType": "address",
          "name": "account",
          "type": "address"
        }
      ],
      "name": "viewRewards",
      "outputs": [
        {
          "internalType": "uint256",
          "name": "",
          "type": "uint256"
        }
      ],
      "stateMutability": "view",
      "type": "function",
      "constant": true
    },
    {
      "inputs": [
        {
          "internalType": "address",
          "name": "_user",
          "type": "address"
        }
      ],
      "name": "getUserstakedNftIds",
      "outputs": [
        {
          "internalType": "uint256[]",
          "name": "",
          "type": "uint256[]"
        }
      ],
      "stateMutability": "view",
      "type": "function",
      "constant": true
    },
    {
      "inputs": [
        {
          "internalType": "uint256[]",
          "name": "tokenIds",
          "type": "uint256[]"
        }
      ],
      "name": "stakeNfts",
      "outputs": [],
      "stateMutability": "nonpayable",
      "type": "function"
    },
    {
      "inputs": [
        {
          "internalType": "uint256[]",
          "name": "tokenIds",
          "type": "uint256[]"
        }
      ],
      "name": "unstakeNfts",
      "outputs": [],
      "stateMutability": "nonpayable",
      "type": "function"
    },
    {
      "inputs": [],
      "name": "togglePause",
      "outputs": [],
      "stateMutability": "nonpayable",
      "type": "function"
    }
  ],
  "bytecode": "0x60806040526000600260006101000a81548160ff0219169083151502179055506000600355680d02ab486cedc00000600755683635c9adc5dea00000600855604051806105000160405280603c61ffff168152602001607561ffff168152602001608961ffff16815260200160fd61ffff16815260200161015f61ffff1681526020016101fc61ffff16815260200161022e61ffff16815260200161023b61ffff16815260200161024b61ffff16815260200161026561ffff1681526020016102c761ffff16815260200161030561ffff16815260200161033a61ffff16815260200161037b61ffff1681526020016103ad61ffff1681526020016103b161ffff1681526020016103cc61ffff1681526020016103de61ffff1681526020016103e461ffff1681526020016103e861ffff16815260200161045361ffff1681526020016104cb61ffff16815260200161050561ffff16815260200161053661ffff16815260200161059661ffff16815260200161123361ffff1681526020016107a861ffff16815260200161082361ffff16815260200161093161ffff168152602001610ac161ffff168152602001610ac261ffff168152602001610b2e61ffff168152602001610b7061ffff168152602001610d3661ffff168152602001610dd961ffff168152602001610e1c61ffff16815260200161108761ffff16815260200161119061ffff16815260200161144c61ffff16815260200161153961ffff16815250600d90602862000236929190620003a5565b503480156200024457600080fd5b506040516200329e3803806200329e83398181016040528101906200026a919062000433565b6200028a6200027e620002d960201b60201c565b620002e160201b60201c565b6001808190555080600660006101000a81548173ffffffffffffffffffffffffffffffffffffffff021916908373ffffffffffffffffffffffffffffffffffffffff16021790555050620004ad565b600033905090565b60008060009054906101000a900473ffffffffffffffffffffffffffffffffffffffff169050816000806101000a81548173ffffffffffffffffffffffffffffffffffffffff021916908373ffffffffffffffffffffffffffffffffffffffff1602179055508173ffffffffffffffffffffffffffffffffffffffff168173ffffffffffffffffffffffffffffffffffffffff167f8be0079c531659141344cd1fd0a4f28419497f9722a3daafe3b4186f6b6457e060405160405180910390a35050565b828054828255906000526020600020908101928215620003ea579160200282015b82811115620003e9578251829061ffff16905591602001919060010190620003c6565b5b509050620003f99190620003fd565b5090565b5b8082111562000418576000816000905550600101620003fe565b5090565b6000815190506200042d8162000493565b92915050565b6000602082840312156200044657600080fd5b600062000456848285016200041c565b91505092915050565b60006200046c8262000473565b9050919050565b600073ffffffffffffffffffffffffffffffffffffffff82169050919050565b6200049e816200045f565b8114620004aa57600080fd5b50565b612de180620004bd6000396000f3fe608060405234801561001057600080fd5b506004361061018e5760003560e01c80639d0f8a3d116100de578063c4ae316811610097578063e512feb011610071578063e512feb0146104a5578063f2fde38b146104c3578063f5b200ac146104df578063faaec8491461050f5761018e565b8063c4ae31681461043b578063da2a4ec514610445578063da40ef80146104755761018e565b80639d0f8a3d14610355578063a075fbde14610385578063a751c49a146103b5578063a7a0d15a146103d1578063b132eb32146103ed578063b77cf9c61461040b5761018e565b8063507cd30f1161014b578063822c0eab11610125578063822c0eab146102e35780638da5cb5b146102ff5780638e3d1b661461031d5780639a36485c146103395761018e565b8063507cd30f1461028d578063715018a6146102a957806372ef5221146102b35761018e565b80630b102d1a146101935780631bfff8ac146101af57806322f10836146101df5780633b55e7741461020f57806347ccca021461023f5780634884254a1461025d575b600080fd5b6101ad60048036038101906101a891906122a2565b61052d565b005b6101c960048036038101906101c491906122a2565b6105ed565b6040516101d69190612aaf565b60405180910390f35b6101f960048036038101906101f49190612330565b610667565b6040516102069190612aaf565b60405180910390f35b610229600480360381019061022491906122a2565b61068c565b6040516102369190612aaf565b60405180910390f35b6102476106e7565b6040516102549190612914565b60405180910390f35b610277600480360381019061027291906123da565b61070d565b604051610284919061285c565b60405180910390f35b6102a760048036038101906102a29190612330565b610740565b005b6102b16108a8565b005b6102cd60048036038101906102c891906122a2565b610930565b6040516102da9190612aaf565b60405180910390f35b6102fd60048036038101906102f8919061236c565b610948565b005b610307610eae565b604051610314919061285c565b60405180910390f35b610337600480360381019061033291906122f4565b610ed7565b005b610353600480360381019061034e919061236c565b610fae565b005b61036f600480360381019061036a91906122a2565b611642565b60405161037c91906128d7565b60405180910390f35b61039f600480360381019061039a91906122a2565b611802565b6040516103ac91906128f9565b60405180910390f35b6103cf60048036038101906103ca91906123da565b611822565b005b6103eb60048036038101906103e69190612330565b6118a8565b005b6103f5611af9565b6040516104029190612aaf565b60405180910390f35b610425600480360381019061042091906122a2565b611aff565b6040516104329190612aaf565b60405180910390f35b610443611b17565b005b61045f600480360381019061045a91906123da565b611bbf565b60405161046c91906128f9565b60405180910390f35b61048f600480360381019061048a91906122a2565b611c48565b60405161049c9190612aaf565b60405180910390f35b6104ad611ca9565b6040516104ba9190612aaf565b60405180910390f35b6104dd60048036038101906104d891906122a2565b611caf565b005b6104f960048036038101906104f491906122a2565b611da7565b6040516105069190612aaf565b60405180910390f35b610517611dbf565b6040516105249190612aaf565b60405180910390f35b610535611dc5565b73ffffffffffffffffffffffffffffffffffffffff16610553610eae565b73ffffffffffffffffffffffffffffffffffffffff16146105a9576040517f08c379a00000000000000000000000000000000000000000000000000000000081526004016105a0906129af565b60405180910390fd5b80600660006101000a81548173ffffffffffffffffffffffffffffffffffffffff021916908373ffffffffffffffffffffffffffffffffffffffff16021790555050565b600080600754600a60008573ffffffffffffffffffffffffffffffffffffffff1673ffffffffffffffffffffffffffffffffffffffff1681526020019081526020016000205461063d9190612b9b565b9050600061064a8461068c565b90506000818361065a9190612b14565b9050809350505050919050565b600c602052816000526040600020602052806000526040600020600091509150505481565b600080600854600b60008573ffffffffffffffffffffffffffffffffffffffff1673ffffffffffffffffffffffffffffffffffffffff168152602001908152602001600020546106dc9190612b9b565b905080915050919050565b600660009054906101000a900473ffffffffffffffffffffffffffffffffffffffff1681565b60096020528060005260406000206000915054906101000a900473ffffffffffffffffffffffffffffffffffffffff1681565b600e600061074c611dc5565b73ffffffffffffffffffffffffffffffffffffffff1673ffffffffffffffffffffffffffffffffffffffff16815260200190815260200160002060009054906101000a900460ff166107d3576040517f08c379a00000000000000000000000000000000000000000000000000000000081526004016107ca9061292f565b60405180910390fd5b60008111610816576040517f08c379a000000000000000000000000000000000000000000000000000000000815260040161080d90612a8f565b60405180910390fd5b80600460008473ffffffffffffffffffffffffffffffffffffffff1673ffffffffffffffffffffffffffffffffffffffff168152602001908152602001600020546108619190612b14565b600460008473ffffffffffffffffffffffffffffffffffffffff1673ffffffffffffffffffffffffffffffffffffffff168152602001908152602001600020819055505050565b6108b0611dc5565b73ffffffffffffffffffffffffffffffffffffffff166108ce610eae565b73ffffffffffffffffffffffffffffffffffffffff1614610924576040517f08c379a000000000000000000000000000000000000000000000000000000000815260040161091b906129af565b60405180910390fd5b61092e6000611dcd565b565b600b6020528060005260406000206000915090505481565b33600061095482611e91565b905042600560008473ffffffffffffffffffffffffffffffffffffffff1673ffffffffffffffffffffffffffffffffffffffff1681526020019081526020016000208190555080600460008473ffffffffffffffffffffffffffffffffffffffff1673ffffffffffffffffffffffffffffffffffffffff16815260200190815260200160002060008282546109e99190612b14565b9250508190555060026001541415610a36576040517f08c379a0000000000000000000000000000000000000000000000000000000008152600401610a2d90612a4f565b60405180910390fd5b6002600181905550600260009054906101000a900460ff1615610a8e576040517f08c379a0000000000000000000000000000000000000000000000000000000008152600401610a8590612a2f565b60405180910390fd5b60008484905011610ad4576040517f08c379a0000000000000000000000000000000000000000000000000000000008152600401610acb90612a6f565b60405180910390fd5b600084849050905060005b81811015610e9f576000868683818110610b22577f4e487b7100000000000000000000000000000000000000000000000000000000600052603260045260246000fd5b9050602002013590503373ffffffffffffffffffffffffffffffffffffffff166009600083815260200190815260200160002060009054906101000a900473ffffffffffffffffffffffffffffffffffffffff1673ffffffffffffffffffffffffffffffffffffffff1614610bcc576040517f08c379a0000000000000000000000000000000000000000000000000000000008152600401610bc39061298f565b60405180910390fd5b3073ffffffffffffffffffffffffffffffffffffffff16600660009054906101000a900473ffffffffffffffffffffffffffffffffffffffff1673ffffffffffffffffffffffffffffffffffffffff16636352211e836040518263ffffffff1660e01b8152600401610c3e9190612aaf565b60206040518083038186803b158015610c5657600080fd5b505afa158015610c6a573d6000803e3d6000fd5b505050506040513d601f19601f82011682018060405250810190610c8e91906122cb565b73ffffffffffffffffffffffffffffffffffffffff1614610ce4576040517f08c379a0000000000000000000000000000000000000000000000000000000008152600401610cdb90612a0f565b60405180910390fd5b610cee3382611f89565b610cf781611bbf565b15610d5657600b60003373ffffffffffffffffffffffffffffffffffffffff1673ffffffffffffffffffffffffffffffffffffffff1681526020019081526020016000206000815480929190610d4c90612c95565b9190505550610dac565b600a60003373ffffffffffffffffffffffffffffffffffffffff1673ffffffffffffffffffffffffffffffffffffffff1681526020019081526020016000206000815480929190610da690612c95565b91905055505b60036000815480929190610dbf90612c95565b91905055506009600082815260200190815260200160002060006101000a81549073ffffffffffffffffffffffffffffffffffffffff0219169055600660009054906101000a900473ffffffffffffffffffffffffffffffffffffffff1673ffffffffffffffffffffffffffffffffffffffff166323b872dd3033846040518463ffffffff1660e01b8152600401610e59939291906128a0565b600060405180830381600087803b158015610e7357600080fd5b505af1158015610e87573d6000803e3d6000fd5b50505050508080610e9790612cbf565b915050610adf565b50506001808190555050505050565b60008060009054906101000a900473ffffffffffffffffffffffffffffffffffffffff16905090565b610edf611dc5565b73ffffffffffffffffffffffffffffffffffffffff16610efd610eae565b73ffffffffffffffffffffffffffffffffffffffff1614610f53576040517f08c379a0000000000000000000000000000000000000000000000000000000008152600401610f4a906129af565b60405180910390fd5b80600e60008473ffffffffffffffffffffffffffffffffffffffff1673ffffffffffffffffffffffffffffffffffffffff16815260200190815260200160002060006101000a81548160ff0219169083151502179055505050565b336000610fba82611e91565b905042600560008473ffffffffffffffffffffffffffffffffffffffff1673ffffffffffffffffffffffffffffffffffffffff1681526020019081526020016000208190555080600460008473ffffffffffffffffffffffffffffffffffffffff1673ffffffffffffffffffffffffffffffffffffffff168152602001908152602001600020600082825461104f9190612b14565b925050819055506002600154141561109c576040517f08c379a000000000000000000000000000000000000000000000000000000000815260040161109390612a4f565b60405180910390fd5b6002600181905550600260009054906101000a900460ff16156110f4576040517f08c379a00000000000000000000000000000000000000000000000000000000081526004016110eb90612a2f565b60405180910390fd5b600660009054906101000a900473ffffffffffffffffffffffffffffffffffffffff1673ffffffffffffffffffffffffffffffffffffffff1663e985e9c533306040518363ffffffff1660e01b8152600401611151929190612877565b60206040518083038186803b15801561116957600080fd5b505afa15801561117d573d6000803e3d6000fd5b505050506040513d601f19601f820116820180604052508101906111a191906123b1565b6111e0576040517f08c379a00000000000000000000000000000000000000000000000000000000081526004016111d7906129cf565b60405180910390fd5b60008484905011611226576040517f08c379a000000000000000000000000000000000000000000000000000000000815260040161121d90612a6f565b60405180910390fd5b60008484905090506000600a60003373ffffffffffffffffffffffffffffffffffffffff1673ffffffffffffffffffffffffffffffffffffffff1681526020019081526020016000205490506000600b60003373ffffffffffffffffffffffffffffffffffffffff1673ffffffffffffffffffffffffffffffffffffffff1681526020019081526020016000205490506000818301905060005b848110156115a8576000898983818110611303577f4e487b7100000000000000000000000000000000000000000000000000000000600052603260045260246000fd5b9050602002013590503373ffffffffffffffffffffffffffffffffffffffff16600660009054906101000a900473ffffffffffffffffffffffffffffffffffffffff1673ffffffffffffffffffffffffffffffffffffffff16636352211e836040518263ffffffff1660e01b815260040161137e9190612aaf565b60206040518083038186803b15801561139657600080fd5b505afa1580156113aa573d6000803e3d6000fd5b505050506040513d601f19601f820116820180604052508101906113ce91906122cb565b73ffffffffffffffffffffffffffffffffffffffff1614611424576040517f08c379a000000000000000000000000000000000000000000000000000000000815260040161141b906129ef565b60405180910390fd5b61142d81611bbf565b1561143f578380600101945050611448565b84806001019550505b336009600083815260200190815260200160002060006101000a81548173ffffffffffffffffffffffffffffffffffffffff021916908373ffffffffffffffffffffffffffffffffffffffff16021790555080600c60003373ffffffffffffffffffffffffffffffffffffffff1673ffffffffffffffffffffffffffffffffffffffff1681526020019081526020016000206000858152602001908152602001600020819055508280600101935050600360008154809291906001019190505550600660009054906101000a900473ffffffffffffffffffffffffffffffffffffffff1673ffffffffffffffffffffffffffffffffffffffff166323b872dd3330846040518463ffffffff1660e01b8152600401611568939291906128a0565b600060405180830381600087803b15801561158257600080fd5b505af1158015611596573d6000803e3d6000fd5b505050505080806001019150506112c0565b5082600a60003373ffffffffffffffffffffffffffffffffffffffff1673ffffffffffffffffffffffffffffffffffffffff1681526020019081526020016000208190555081600b60003373ffffffffffffffffffffffffffffffffffffffff1673ffffffffffffffffffffffffffffffffffffffff16815260200190815260200160002081905550505050506001808190555050505050565b60606000600b60008473ffffffffffffffffffffffffffffffffffffffff1673ffffffffffffffffffffffffffffffffffffffff16815260200190815260200160002054600a60008573ffffffffffffffffffffffffffffffffffffffff1673ffffffffffffffffffffffffffffffffffffffff168152602001908152602001600020546116d09190612b14565b905060008167ffffffffffffffff811115611714577f4e487b7100000000000000000000000000000000000000000000000000000000600052604160045260246000fd5b6040519080825280602002602001820160405280156117425781602001602082028036833780820191505090505b50905060005b828110156117f757600c60008673ffffffffffffffffffffffffffffffffffffffff1673ffffffffffffffffffffffffffffffffffffffff1681526020019081526020016000206000828152602001908152602001600020548282815181106117da577f4e487b7100000000000000000000000000000000000000000000000000000000600052603260045260246000fd5b602002602001018181525050806117f090612cbf565b9050611748565b508092505050919050565b600e6020528060005260406000206000915054906101000a900460ff1681565b61182a611dc5565b73ffffffffffffffffffffffffffffffffffffffff16611848610eae565b73ffffffffffffffffffffffffffffffffffffffff161461189e576040517f08c379a0000000000000000000000000000000000000000000000000000000008152600401611895906129af565b60405180910390fd5b8060078190555050565b8160006118b482611e91565b905042600560008473ffffffffffffffffffffffffffffffffffffffff1673ffffffffffffffffffffffffffffffffffffffff1681526020019081526020016000208190555080600460008473ffffffffffffffffffffffffffffffffffffffff1673ffffffffffffffffffffffffffffffffffffffff16815260200190815260200160002060008282546119499190612b14565b92505081905550600e600061195c611dc5565b73ffffffffffffffffffffffffffffffffffffffff1673ffffffffffffffffffffffffffffffffffffffff16815260200190815260200160002060009054906101000a900460ff166119e3576040517f08c379a00000000000000000000000000000000000000000000000000000000081526004016119da9061292f565b60405180910390fd5b82600460008673ffffffffffffffffffffffffffffffffffffffff1673ffffffffffffffffffffffffffffffffffffffff168152602001908152602001600020541015611a65576040517f08c379a0000000000000000000000000000000000000000000000000000000008152600401611a5c9061296f565b60405180910390fd5b82600460008673ffffffffffffffffffffffffffffffffffffffff1673ffffffffffffffffffffffffffffffffffffffff16815260200190815260200160002054611ab09190612bf5565b600460008673ffffffffffffffffffffffffffffffffffffffff1673ffffffffffffffffffffffffffffffffffffffff1681526020019081526020016000208190555050505050565b60075481565b60056020528060005260406000206000915090505481565b611b1f611dc5565b73ffffffffffffffffffffffffffffffffffffffff16611b3d610eae565b73ffffffffffffffffffffffffffffffffffffffff1614611b93576040517f08c379a0000000000000000000000000000000000000000000000000000000008152600401611b8a906129af565b60405180910390fd5b600260009054906101000a900460ff1615600260006101000a81548160ff021916908315150217905550565b600080600090505b600d80549050811015611c3d5782600d8281548110611c0f577f4e487b7100000000000000000000000000000000000000000000000000000000600052603260045260246000fd5b90600052602060002001541415611c2a576001915050611c43565b8080611c3590612cbf565b915050611bc7565b50600090505b919050565b600080611c5483611e91565b9050600460008473ffffffffffffffffffffffffffffffffffffffff1673ffffffffffffffffffffffffffffffffffffffff1681526020019081526020016000205481611ca19190612b14565b915050919050565b60085481565b611cb7611dc5565b73ffffffffffffffffffffffffffffffffffffffff16611cd5610eae565b73ffffffffffffffffffffffffffffffffffffffff1614611d2b576040517f08c379a0000000000000000000000000000000000000000000000000000000008152600401611d22906129af565b60405180910390fd5b600073ffffffffffffffffffffffffffffffffffffffff168173ffffffffffffffffffffffffffffffffffffffff161415611d9b576040517f08c379a0000000000000000000000000000000000000000000000000000000008152600401611d929061294f565b60405180910390fd5b611da481611dcd565b50565b600a6020528060005260406000206000915090505481565b60035481565b600033905090565b60008060009054906101000a900473ffffffffffffffffffffffffffffffffffffffff169050816000806101000a81548173ffffffffffffffffffffffffffffffffffffffff021916908373ffffffffffffffffffffffffffffffffffffffff1602179055508173ffffffffffffffffffffffffffffffffffffffff168173ffffffffffffffffffffffffffffffffffffffff167f8be0079c531659141344cd1fd0a4f28419497f9722a3daafe3b4186f6b6457e060405160405180910390a35050565b600080600754600a60008573ffffffffffffffffffffffffffffffffffffffff1673ffffffffffffffffffffffffffffffffffffffff16815260200190815260200160002054611ee19190612b9b565b90506000611eee8461068c565b905060008183611efe9190612b14565b90506000600560008773ffffffffffffffffffffffffffffffffffffffff1673ffffffffffffffffffffffffffffffffffffffff168152602001908152602001600020549050611f7e62015180611f70611f6184426121ad90919063ffffffff16565b856121c390919063ffffffff16565b6121d990919063ffffffff16565b945050505050919050565b6000600a60008473ffffffffffffffffffffffffffffffffffffffff1673ffffffffffffffffffffffffffffffffffffffff1681526020019081526020016000205490506000600b60008573ffffffffffffffffffffffffffffffffffffffff1673ffffffffffffffffffffffffffffffffffffffff1681526020019081526020016000205490506000828261201f9190612b14565b905060005b818110156121a55784600c60008873ffffffffffffffffffffffffffffffffffffffff1673ffffffffffffffffffffffffffffffffffffffff16815260200190815260200160002060008381526020019081526020016000205414156121945760006001836120939190612bf5565b9050600c60008873ffffffffffffffffffffffffffffffffffffffff1673ffffffffffffffffffffffffffffffffffffffff168152602001908152602001600020600082815260200190815260200160002054600c60008973ffffffffffffffffffffffffffffffffffffffff1673ffffffffffffffffffffffffffffffffffffffff168152602001908152602001600020600084815260200190815260200160002081905550600c60008873ffffffffffffffffffffffffffffffffffffffff1673ffffffffffffffffffffffffffffffffffffffff168152602001908152602001600020600082815260200190815260200160002060009055506121a5565b8061219e90612cbf565b9050612024565b505050505050565b600081836121bb9190612bf5565b905092915050565b600081836121d19190612b9b565b905092915050565b600081836121e79190612b6a565b905092915050565b6000813590506121fe81612d66565b92915050565b60008151905061221381612d66565b92915050565b60008083601f84011261222b57600080fd5b8235905067ffffffffffffffff81111561224457600080fd5b60208301915083602082028301111561225c57600080fd5b9250929050565b60008135905061227281612d7d565b92915050565b60008151905061228781612d7d565b92915050565b60008135905061229c81612d94565b92915050565b6000602082840312156122b457600080fd5b60006122c2848285016121ef565b91505092915050565b6000602082840312156122dd57600080fd5b60006122eb84828501612204565b91505092915050565b6000806040838503121561230757600080fd5b6000612315858286016121ef565b925050602061232685828601612263565b9150509250929050565b6000806040838503121561234357600080fd5b6000612351858286016121ef565b92505060206123628582860161228d565b9150509250929050565b6000806020838503121561237f57600080fd5b600083013567ffffffffffffffff81111561239957600080fd5b6123a585828601612219565b92509250509250929050565b6000602082840312156123c357600080fd5b60006123d184828501612278565b91505092915050565b6000602082840312156123ec57600080fd5b60006123fa8482850161228d565b91505092915050565b600061240f838361283e565b60208301905092915050565b61242481612c29565b82525050565b600061243582612ada565b61243f8185612af2565b935061244a83612aca565b8060005b8381101561247b5781516124628882612403565b975061246d83612ae5565b92505060018101905061244e565b5085935050505092915050565b61249181612c3b565b82525050565b6124a081612c71565b82525050565b60006124b3602283612b03565b91507f4f776e61626c653a2063616c6c6572206973206e6f742074686520416c6c6f7760008301527f65640000000000000000000000000000000000000000000000000000000000006020830152604082019050919050565b6000612519602683612b03565b91507f4f776e61626c653a206e6577206f776e657220697320746865207a65726f206160008301527f64647265737300000000000000000000000000000000000000000000000000006020830152604082019050919050565b600061257f603083612b03565b91507f446564756374696f6e20616d6f756e742073686f756c6420626520677265617460008301527f6572207468616e2062616c616e63652e000000000000000000000000000000006020830152604082019050919050565b60006125e5601483612b03565b91507f596f7520646f6e74206f776e20746869732049440000000000000000000000006000830152602082019050919050565b6000612625602083612b03565b91507f4f776e61626c653a2063616c6c6572206973206e6f7420746865206f776e65726000830152602082019050919050565b6000612665601283612b03565b91507f417070726f7665204e66747320466972737400000000000000000000000000006000830152602082019050919050565b60006126a5601e83612b03565b91507f596f7520617265206e6f74206f776e6572206f662074686973206e66742e00006000830152602082019050919050565b60006126e5602183612b03565b91507f4e6674206e6f7420617661696c61626c6520696e2074686520636f6e7472616360008301527f74000000000000000000000000000000000000000000000000000000000000006020830152604082019050919050565b600061274b601283612b03565b91507f436f6e74726163742069732070617573656400000000000000000000000000006000830152602082019050919050565b600061278b601f83612b03565b91507f5265656e7472616e637947756172643a207265656e7472616e742063616c6c006000830152602082019050919050565b60006127cb600f83612b03565b91507f30204e66747320746f205374616b6500000000000000000000000000000000006000830152602082019050919050565b600061280b601583612b03565b91507f56616c75652063616e6e6f74206265207a65726f2e00000000000000000000006000830152602082019050919050565b61284781612c67565b82525050565b61285681612c67565b82525050565b6000602082019050612871600083018461241b565b92915050565b600060408201905061288c600083018561241b565b612899602083018461241b565b9392505050565b60006060820190506128b5600083018661241b565b6128c2602083018561241b565b6128cf604083018461284d565b949350505050565b600060208201905081810360008301526128f1818461242a565b905092915050565b600060208201905061290e6000830184612488565b92915050565b60006020820190506129296000830184612497565b92915050565b60006020820190508181036000830152612948816124a6565b9050919050565b600060208201905081810360008301526129688161250c565b9050919050565b6000602082019050818103600083015261298881612572565b9050919050565b600060208201905081810360008301526129a8816125d8565b9050919050565b600060208201905081810360008301526129c881612618565b9050919050565b600060208201905081810360008301526129e881612658565b9050919050565b60006020820190508181036000830152612a0881612698565b9050919050565b60006020820190508181036000830152612a28816126d8565b9050919050565b60006020820190508181036000830152612a488161273e565b9050919050565b60006020820190508181036000830152612a688161277e565b9050919050565b60006020820190508181036000830152612a88816127be565b9050919050565b60006020820190508181036000830152612aa8816127fe565b9050919050565b6000602082019050612ac4600083018461284d565b92915050565b6000819050602082019050919050565b600081519050919050565b6000602082019050919050565b600082825260208201905092915050565b600082825260208201905092915050565b6000612b1f82612c67565b9150612b2a83612c67565b9250827fffffffffffffffffffffffffffffffffffffffffffffffffffffffffffffffff03821115612b5f57612b5e612d08565b5b828201905092915050565b6000612b7582612c67565b9150612b8083612c67565b925082612b9057612b8f612d37565b5b828204905092915050565b6000612ba682612c67565b9150612bb183612c67565b9250817fffffffffffffffffffffffffffffffffffffffffffffffffffffffffffffffff0483118215151615612bea57612be9612d08565b5b828202905092915050565b6000612c0082612c67565b9150612c0b83612c67565b925082821015612c1e57612c1d612d08565b5b828203905092915050565b6000612c3482612c47565b9050919050565b60008115159050919050565b600073ffffffffffffffffffffffffffffffffffffffff82169050919050565b6000819050919050565b6000612c7c82612c83565b9050919050565b6000612c8e82612c47565b9050919050565b6000612ca082612c67565b91506000821415612cb457612cb3612d08565b5b600182039050919050565b6000612cca82612c67565b91507fffffffffffffffffffffffffffffffffffffffffffffffffffffffffffffffff821415612cfd57612cfc612d08565b5b600182019050919050565b7f4e487b7100000000000000000000000000000000000000000000000000000000600052601160045260246000fd5b7f4e487b7100000000000000000000000000000000000000000000000000000000600052601260045260246000fd5b612d6f81612c29565b8114612d7a57600080fd5b50565b612d8681612c3b565b8114612d9157600080fd5b50565b612d9d81612c67565b8114612da857600080fd5b5056fea264697066735822122084399e8c9a0d0fb32e8793fa0bfe23946a8b089c4b56156222eedfd0f4ef31e264736f6c63430008000033",
  "immutableReferences": {},
  "source": "/**\r\n *Submitted for verification at polygonscan.com on 2023-07-12\r\n */\r\n\r\n//Developer Info:\r\n//Written by Blockchainguy.net\r\n//Email: info@blockchainguy.net\r\n//Instagram: @sheraz.manzoor\r\n\r\npragma solidity ^0.8.0;\r\n\r\ninterface IERC165 {\r\n    function supportsInterface(bytes4 interfaceId) external view returns (bool);\r\n}\r\n\r\npragma solidity ^0.8.0;\r\n\r\ninterface IERC721 is IERC165 {\r\n    /**\r\n     * @dev Emitted when `tokenId` token is transferred from `from` to `to`.\r\n     */\r\n    event Transfer(\r\n        address indexed from,\r\n        address indexed to,\r\n        uint256 indexed tokenId\r\n    );\r\n\r\n    /**\r\n     * @dev Emitted when `owner` enables `approved` to manage the `tokenId` token.\r\n     */\r\n    event Approval(\r\n        address indexed owner,\r\n        address indexed approved,\r\n        uint256 indexed tokenId\r\n    );\r\n\r\n    /**\r\n     * @dev Emitted when `owner` enables or disables (`approved`) `operator` to manage all of its assets.\r\n     */\r\n    event ApprovalForAll(\r\n        address indexed owner,\r\n        address indexed operator,\r\n        bool approved\r\n    );\r\n\r\n    /**\r\n     * @dev Returns the number of tokens in ``owner``'s account.\r\n     */\r\n    function balanceOf(address owner) external view returns (uint256 balance);\r\n\r\n    /**\r\n     * @dev Returns the owner of the `tokenId` token.\r\n     *\r\n     * Requirements:\r\n     *\r\n     * - `tokenId` must exist.\r\n     */\r\n    function ownerOf(uint256 tokenId) external view returns (address owner);\r\n\r\n    /**\r\n     * @dev Safely transfers `tokenId` token from `from` to `to`.\r\n     *\r\n     * Requirements:\r\n     *\r\n     * - `from` cannot be the zero address.\r\n     * - `to` cannot be the zero address.\r\n     * - `tokenId` token must exist and be owned by `from`.\r\n     * - If the caller is not `from`, it must be approved to move this token by either {approve} or {setApprovalForAll}.\r\n     * - If `to` refers to a smart contract, it must implement {IERC721Receiver-onERC721Received}, which is called upon a safe transfer.\r\n     *\r\n     * Emits a {Transfer} event.\r\n     */\r\n    function safeTransferFrom(\r\n        address from,\r\n        address to,\r\n        uint256 tokenId,\r\n        bytes calldata data\r\n    ) external;\r\n\r\n    /**\r\n     * @dev Safely transfers `tokenId` token from `from` to `to`, checking first that contract recipients\r\n     * are aware of the ERC721 protocol to prevent tokens from being forever locked.\r\n     *\r\n     * Requirements:\r\n     *\r\n     * - `from` cannot be the zero address.\r\n     * - `to` cannot be the zero address.\r\n     * - `tokenId` token must exist and be owned by `from`.\r\n     * - If the caller is not `from`, it must be have been allowed to move this token by either {approve} or {setApprovalForAll}.\r\n     * - If `to` refers to a smart contract, it must implement {IERC721Receiver-onERC721Received}, which is called upon a safe transfer.\r\n     *\r\n     * Emits a {Transfer} event.\r\n     */\r\n    function safeTransferFrom(\r\n        address from,\r\n        address to,\r\n        uint256 tokenId\r\n    ) external;\r\n\r\n    function totalSupply() external view returns (uint256);\r\n\r\n    /**\r\n     * @dev Transfers `tokenId` token from `from` to `to`.\r\n     *\r\n     * WARNING: Usage of this method is discouraged, use {safeTransferFrom} whenever possible.\r\n     *\r\n     * Requirements:\r\n     *\r\n     * - `from` cannot be the zero address.\r\n     * - `to` cannot be the zero address.\r\n     * - `tokenId` token must be owned by `from`.\r\n     * - If the caller is not `from`, it must be approved to move this token by either {approve} or {setApprovalForAll}.\r\n     *\r\n     * Emits a {Transfer} event.\r\n     */\r\n    function transferFrom(address from, address to, uint256 tokenId) external;\r\n\r\n    /**\r\n     * @dev Gives permission to `to` to transfer `tokenId` token to another account.\r\n     * The approval is cleared when the token is transferred.\r\n     *\r\n     * Only a single account can be approved at a time, so approving the zero address clears previous approvals.\r\n     *\r\n     * Requirements:\r\n     *\r\n     * - The caller must own the token or be an approved operator.\r\n     * - `tokenId` must exist.\r\n     *\r\n     * Emits an {Approval} event.\r\n     */\r\n    function approve(address to, uint256 tokenId) external;\r\n\r\n    /**\r\n     * @dev Approve or remove `operator` as an operator for the caller.\r\n     * Operators can call {transferFrom} or {safeTransferFrom} for any token owned by the caller.\r\n     *\r\n     * Requirements:\r\n     *\r\n     * - The `operator` cannot be the caller.\r\n     *\r\n     * Emits an {ApprovalForAll} event.\r\n     */\r\n    function setApprovalForAll(address operator, bool _approved) external;\r\n\r\n    /**\r\n     * @dev Returns the account approved for `tokenId` token.\r\n     *\r\n     * Requirements:\r\n     *\r\n     * - `tokenId` must exist.\r\n     */\r\n    function getApproved(\r\n        uint256 tokenId\r\n    ) external view returns (address operator);\r\n\r\n    /**\r\n     * @dev Returns if the `operator` is allowed to manage all of the assets of `owner`.\r\n     *\r\n     * See {setApprovalForAll}\r\n     */\r\n    function isApprovedForAll(\r\n        address owner,\r\n        address operator\r\n    ) external view returns (bool);\r\n}\r\n\r\npragma solidity ^0.8.0;\r\n\r\n// CAUTION\r\n// This version of SafeMath should only be used with Solidity 0.8 or later,\r\n// because it relies on the compiler's built in overflow checks.\r\n\r\n/**\r\n * @dev Wrappers over Solidity's arithmetic operations.\r\n *\r\n * NOTE: `SafeMath` is generally not needed starting with Solidity 0.8, since the compiler\r\n * now has built in overflow checking.\r\n */\r\nlibrary SafeMath {\r\n    /**\r\n     * @dev Returns the addition of two unsigned integers, with an overflow flag.\r\n     *\r\n     * _Available since v3.4._\r\n     */\r\n    function tryAdd(\r\n        uint256 a,\r\n        uint256 b\r\n    ) internal pure returns (bool, uint256) {\r\n        unchecked {\r\n            uint256 c = a + b;\r\n            if (c < a) return (false, 0);\r\n            return (true, c);\r\n        }\r\n    }\r\n\r\n    /**\r\n     * @dev Returns the subtraction of two unsigned integers, with an overflow flag.\r\n     *\r\n     * _Available since v3.4._\r\n     */\r\n    function trySub(\r\n        uint256 a,\r\n        uint256 b\r\n    ) internal pure returns (bool, uint256) {\r\n        unchecked {\r\n            if (b > a) return (false, 0);\r\n            return (true, a - b);\r\n        }\r\n    }\r\n\r\n    /**\r\n     * @dev Returns the multiplication of two unsigned integers, with an overflow flag.\r\n     *\r\n     * _Available since v3.4._\r\n     */\r\n    function tryMul(\r\n        uint256 a,\r\n        uint256 b\r\n    ) internal pure returns (bool, uint256) {\r\n        unchecked {\r\n            // Gas optimization: this is cheaper than requiring 'a' not being zero, but the\r\n            // benefit is lost if 'b' is also tested.\r\n            // See: https://github.com/OpenZeppelin/openzeppelin-contracts/pull/522\r\n            if (a == 0) return (true, 0);\r\n            uint256 c = a * b;\r\n            if (c / a != b) return (false, 0);\r\n            return (true, c);\r\n        }\r\n    }\r\n\r\n    /**\r\n     * @dev Returns the division of two unsigned integers, with a division by zero flag.\r\n     *\r\n     * _Available since v3.4._\r\n     */\r\n    function tryDiv(\r\n        uint256 a,\r\n        uint256 b\r\n    ) internal pure returns (bool, uint256) {\r\n        unchecked {\r\n            if (b == 0) return (false, 0);\r\n            return (true, a / b);\r\n        }\r\n    }\r\n\r\n    /**\r\n     * @dev Returns the remainder of dividing two unsigned integers, with a division by zero flag.\r\n     *\r\n     * _Available since v3.4._\r\n     */\r\n    function tryMod(\r\n        uint256 a,\r\n        uint256 b\r\n    ) internal pure returns (bool, uint256) {\r\n        unchecked {\r\n            if (b == 0) return (false, 0);\r\n            return (true, a % b);\r\n        }\r\n    }\r\n\r\n    /**\r\n     * @dev Returns the addition of two unsigned integers, reverting on\r\n     * overflow.\r\n     *\r\n     * Counterpart to Solidity's `+` operator.\r\n     *\r\n     * Requirements:\r\n     *\r\n     * - Addition cannot overflow.\r\n     */\r\n    function add(uint256 a, uint256 b) internal pure returns (uint256) {\r\n        return a + b;\r\n    }\r\n\r\n    /**\r\n     * @dev Returns the subtraction of two unsigned integers, reverting on\r\n     * overflow (when the result is negative).\r\n     *\r\n     * Counterpart to Solidity's `-` operator.\r\n     *\r\n     * Requirements:\r\n     *\r\n     * - Subtraction cannot overflow.\r\n     */\r\n    function sub(uint256 a, uint256 b) internal pure returns (uint256) {\r\n        return a - b;\r\n    }\r\n\r\n    /**\r\n     * @dev Returns the multiplication of two unsigned integers, reverting on\r\n     * overflow.\r\n     *\r\n     * Counterpart to Solidity's `*` operator.\r\n     *\r\n     * Requirements:\r\n     *\r\n     * - Multiplication cannot overflow.\r\n     */\r\n    function mul(uint256 a, uint256 b) internal pure returns (uint256) {\r\n        return a * b;\r\n    }\r\n\r\n    /**\r\n     * @dev Returns the integer division of two unsigned integers, reverting on\r\n     * division by zero. The result is rounded towards zero.\r\n     *\r\n     * Counterpart to Solidity's `/` operator.\r\n     *\r\n     * Requirements:\r\n     *\r\n     * - The divisor cannot be zero.\r\n     */\r\n    function div(uint256 a, uint256 b) internal pure returns (uint256) {\r\n        return a / b;\r\n    }\r\n\r\n    /**\r\n     * @dev Returns the remainder of dividing two unsigned integers. (unsigned integer modulo),\r\n     * reverting when dividing by zero.\r\n     *\r\n     * Counterpart to Solidity's `%` operator. This function uses a `revert`\r\n     * opcode (which leaves remaining gas untouched) while Solidity uses an\r\n     * invalid opcode to revert (consuming all remaining gas).\r\n     *\r\n     * Requirements:\r\n     *\r\n     * - The divisor cannot be zero.\r\n     */\r\n    function mod(uint256 a, uint256 b) internal pure returns (uint256) {\r\n        return a % b;\r\n    }\r\n\r\n    /**\r\n     * @dev Returns the subtraction of two unsigned integers, reverting with custom message on\r\n     * overflow (when the result is negative).\r\n     *\r\n     * CAUTION: This function is deprecated because it requires allocating memory for the error\r\n     * message unnecessarily. For custom revert reasons use {trySub}.\r\n     *\r\n     * Counterpart to Solidity's `-` operator.\r\n     *\r\n     * Requirements:\r\n     *\r\n     * - Subtraction cannot overflow.\r\n     */\r\n    function sub(\r\n        uint256 a,\r\n        uint256 b,\r\n        string memory errorMessage\r\n    ) internal pure returns (uint256) {\r\n        unchecked {\r\n            require(b <= a, errorMessage);\r\n            return a - b;\r\n        }\r\n    }\r\n\r\n    /**\r\n     * @dev Returns the integer division of two unsigned integers, reverting with custom message on\r\n     * division by zero. The result is rounded towards zero.\r\n     *\r\n     * Counterpart to Solidity's `/` operator. Note: this function uses a\r\n     * `revert` opcode (which leaves remaining gas untouched) while Solidity\r\n     * uses an invalid opcode to revert (consuming all remaining gas).\r\n     *\r\n     * Requirements:\r\n     *\r\n     * - The divisor cannot be zero.\r\n     */\r\n    function div(\r\n        uint256 a,\r\n        uint256 b,\r\n        string memory errorMessage\r\n    ) internal pure returns (uint256) {\r\n        unchecked {\r\n            require(b > 0, errorMessage);\r\n            return a / b;\r\n        }\r\n    }\r\n\r\n    /**\r\n     * @dev Returns the remainder of dividing two unsigned integers. (unsigned integer modulo),\r\n     * reverting with custom message when dividing by zero.\r\n     *\r\n     * CAUTION: This function is deprecated because it requires allocating memory for the error\r\n     * message unnecessarily. For custom revert reasons use {tryMod}.\r\n     *\r\n     * Counterpart to Solidity's `%` operator. This function uses a `revert`\r\n     * opcode (which leaves remaining gas untouched) while Solidity uses an\r\n     * invalid opcode to revert (consuming all remaining gas).\r\n     *\r\n     * Requirements:\r\n     *\r\n     * - The divisor cannot be zero.\r\n     */\r\n    function mod(\r\n        uint256 a,\r\n        uint256 b,\r\n        string memory errorMessage\r\n    ) internal pure returns (uint256) {\r\n        unchecked {\r\n            require(b > 0, errorMessage);\r\n            return a % b;\r\n        }\r\n    }\r\n}\r\n\r\npragma solidity ^0.8.0;\r\n\r\n/**\r\n * @dev Provides information about the current execution context, including the\r\n * sender of the transaction and its data. While these are generally available\r\n * via msg.sender and msg.data, they should not be accessed in such a direct\r\n * manner, since when dealing with meta-transactions the account sending and\r\n * paying for execution may not be the actual sender (as far as an application\r\n * is concerned).\r\n *\r\n * This contract is only required for intermediate, library-like contracts.\r\n */\r\nabstract contract Context {\r\n    function _msgSender() internal view virtual returns (address) {\r\n        return msg.sender;\r\n    }\r\n\r\n    function _msgData() internal view virtual returns (bytes calldata) {\r\n        return msg.data;\r\n    }\r\n}\r\n\r\n// File: @openzeppelin/contracts/access/Ownable.sol\r\n\r\n// OpenZeppelin Contracts v4.4.1 (access/Ownable.sol)\r\n\r\npragma solidity ^0.8.0;\r\n\r\n/**\r\n * @dev Contract module which provides a basic access control mechanism, where\r\n * there is an account (an owner) that can be granted exclusive access to\r\n * specific functions.\r\n *\r\n * By default, the owner account will be the one that deploys the contract. This\r\n * can later be changed with {transferOwnership}.\r\n *\r\n * This module is used through inheritance. It will make available the modifier\r\n * `onlyOwner`, which can be applied to your functions to restrict their use to\r\n * the owner.\r\n */\r\nabstract contract Ownable is Context {\r\n    address private _owner;\r\n\r\n    event OwnershipTransferred(\r\n        address indexed previousOwner,\r\n        address indexed newOwner\r\n    );\r\n\r\n    /**\r\n     * @dev Initializes the contract setting the deployer as the initial owner.\r\n     */\r\n    constructor() {\r\n        _transferOwnership(_msgSender());\r\n    }\r\n\r\n    /**\r\n     * @dev Returns the address of the current owner.\r\n     */\r\n    function owner() public view virtual returns (address) {\r\n        return _owner;\r\n    }\r\n\r\n    /**\r\n     * @dev Throws if called by any account other than the owner.\r\n     */\r\n    modifier onlyOwner() {\r\n        require(owner() == _msgSender(), \"Ownable: caller is not the owner\");\r\n        _;\r\n    }\r\n\r\n    /**\r\n     * @dev Leaves the contract without owner. It will not be possible to call\r\n     * `onlyOwner` functions anymore. Can only be called by the current owner.\r\n     *\r\n     * NOTE: Renouncing ownership will leave the contract without an owner,\r\n     * thereby removing any functionality that is only available to the owner.\r\n     */\r\n    function renounceOwnership() public virtual onlyOwner {\r\n        _transferOwnership(address(0));\r\n    }\r\n\r\n    /**\r\n     * @dev Transfers ownership of the contract to a new account (`newOwner`).\r\n     * Can only be called by the current owner.\r\n     */\r\n    function transferOwnership(address newOwner) public virtual onlyOwner {\r\n        require(\r\n            newOwner != address(0),\r\n            \"Ownable: new owner is the zero address\"\r\n        );\r\n        _transferOwnership(newOwner);\r\n    }\r\n\r\n    /**\r\n     * @dev Transfers ownership of the contract to a new account (`newOwner`).\r\n     * Internal function without access restriction.\r\n     */\r\n    function _transferOwnership(address newOwner) internal virtual {\r\n        address oldOwner = _owner;\r\n        _owner = newOwner;\r\n        emit OwnershipTransferred(oldOwner, newOwner);\r\n    }\r\n}\r\n\r\n// File: @openzeppelin/contracts/token/ERC20/IERC20.sol\r\n\r\n// OpenZeppelin Contracts (last updated v4.6.0) (token/ERC20/IERC20.sol)\r\n\r\npragma solidity ^0.8.0;\r\n\r\n/**\r\n * @dev Interface of the ERC20 standard as defined in the EIP.\r\n */\r\ninterface IERC20 {\r\n    /**\r\n     * @dev Emitted when `value` tokens are moved from one account (`from`) to\r\n     * another (`to`).\r\n     *\r\n     * Note that `value` may be zero.\r\n     */\r\n    event Transfer(address indexed from, address indexed to, uint256 value);\r\n\r\n    /**\r\n     * @dev Emitted when the allowance of a `spender` for an `owner` is set by\r\n     * a call to {approve}. `value` is the new allowance.\r\n     */\r\n    event Approval(\r\n        address indexed owner,\r\n        address indexed spender,\r\n        uint256 value\r\n    );\r\n\r\n    /**\r\n     * @dev Returns the amount of tokens in existence.\r\n     */\r\n    function totalSupply() external view returns (uint256);\r\n\r\n    /**\r\n     * @dev Returns the amount of tokens owned by `account`.\r\n     */\r\n    function balanceOf(address account) external view returns (uint256);\r\n\r\n    /**\r\n     * @dev Moves `amount` tokens from the caller's account to `to`.\r\n     *\r\n     * Returns a boolean value indicating whether the operation succeeded.\r\n     *\r\n     * Emits a {Transfer} event.\r\n     */\r\n    function transfer(address to, uint256 amount) external returns (bool);\r\n\r\n    /**\r\n     * @dev Returns the remaining number of tokens that `spender` will be\r\n     * allowed to spend on behalf of `owner` through {transferFrom}. This is\r\n     * zero by default.\r\n     *\r\n     * This value changes when {approve} or {transferFrom} are called.\r\n     */\r\n    function allowance(\r\n        address owner,\r\n        address spender\r\n    ) external view returns (uint256);\r\n\r\n    /**\r\n     * @dev Sets `amount` as the allowance of `spender` over the caller's tokens.\r\n     *\r\n     * Returns a boolean value indicating whether the operation succeeded.\r\n     *\r\n     * IMPORTANT: Beware that changing an allowance with this method brings the risk\r\n     * that someone may use both the old and the new allowance by unfortunate\r\n     * transaction ordering. One possible solution to mitigate this race\r\n     * condition is to first reduce the spender's allowance to 0 and set the\r\n     * desired value afterwards:\r\n     * https://github.com/ethereum/EIPs/issues/20#issuecomment-263524729\r\n     *\r\n     * Emits an {Approval} event.\r\n     */\r\n    function approve(address spender, uint256 amount) external returns (bool);\r\n\r\n    /**\r\n     * @dev Moves `amount` tokens from `from` to `to` using the\r\n     * allowance mechanism. `amount` is then deducted from the caller's\r\n     * allowance.\r\n     *\r\n     * Returns a boolean value indicating whether the operation succeeded.\r\n     *\r\n     * Emits a {Transfer} event.\r\n     */\r\n    function transferFrom(\r\n        address from,\r\n        address to,\r\n        uint256 amount\r\n    ) external returns (bool);\r\n}\r\n\r\n// File: @openzeppelin/contracts/token/ERC20/extensions/IERC20Metadata.sol\r\n\r\n// OpenZeppelin Contracts v4.4.1 (token/ERC20/extensions/IERC20Metadata.sol)\r\n\r\npragma solidity ^0.8.0;\r\n\r\n/**\r\n * @dev Interface for the optional metadata functions from the ERC20 standard.\r\n *\r\n * _Available since v4.1._\r\n */\r\ninterface IERC20Metadata is IERC20 {\r\n    /**\r\n     * @dev Returns the name of the token.\r\n     */\r\n    function name() external view returns (string memory);\r\n\r\n    /**\r\n     * @dev Returns the symbol of the token.\r\n     */\r\n    function symbol() external view returns (string memory);\r\n\r\n    /**\r\n     * @dev Returns the decimals places of the token.\r\n     */\r\n    function decimals() external view returns (uint8);\r\n}\r\n\r\n// File: @openzeppelin/contracts/token/ERC20/ERC20.sol\r\n\r\n// OpenZeppelin Contracts (last updated v4.6.0) (token/ERC20/ERC20.sol)\r\n\r\npragma solidity ^0.8.0;\r\n\r\n/**\r\n * @dev Implementation of the {IERC20} interface.\r\n *\r\n * This implementation is agnostic to the way tokens are created. This means\r\n * that a supply mechanism has to be added in a derived contract using {_mint}.\r\n * For a generic mechanism see {ERC20PresetMinterPauser}.\r\n *\r\n * TIP: For a detailed writeup see our guide\r\n * https://forum.zeppelin.solutions/t/how-to-implement-erc20-supply-mechanisms/226[How\r\n * to implement supply mechanisms].\r\n *\r\n * We have followed general OpenZeppelin Contracts guidelines: functions revert\r\n * instead returning `false` on failure. This behavior is nonetheless\r\n * conventional and does not conflict with the expectations of ERC20\r\n * applications.\r\n *\r\n * Additionally, an {Approval} event is emitted on calls to {transferFrom}.\r\n * This allows applications to reconstruct the allowance for all accounts just\r\n * by listening to said events. Other implementations of the EIP may not emit\r\n * these events, as it isn't required by the specification.\r\n *\r\n * Finally, the non-standard {decreaseAllowance} and {increaseAllowance}\r\n * functions have been added to mitigate the well-known issues around setting\r\n * allowances. See {IERC20-approve}.\r\n */\r\ncontract ERC20 is Context, IERC20, IERC20Metadata {\r\n    mapping(address => uint256) private _balances;\r\n\r\n    mapping(address => mapping(address => uint256)) private _allowances;\r\n\r\n    uint256 private _totalSupply;\r\n\r\n    string private _name;\r\n    string private _symbol;\r\n\r\n    /**\r\n     * @dev Sets the values for {name} and {symbol}.\r\n     *\r\n     * The default value of {decimals} is 18. To select a different value for\r\n     * {decimals} you should overload it.\r\n     *\r\n     * All two of these values are immutable: they can only be set once during\r\n     * construction.\r\n     */\r\n    constructor(string memory name_, string memory symbol_) {\r\n        _name = name_;\r\n        _symbol = symbol_;\r\n    }\r\n\r\n    /**\r\n     * @dev Returns the name of the token.\r\n     */\r\n    function name() public view virtual override returns (string memory) {\r\n        return _name;\r\n    }\r\n\r\n    /**\r\n     * @dev Returns the symbol of the token, usually a shorter version of the\r\n     * name.\r\n     */\r\n    function symbol() public view virtual override returns (string memory) {\r\n        return _symbol;\r\n    }\r\n\r\n    /**\r\n     * @dev Returns the number of decimals used to get its user representation.\r\n     * For example, if `decimals` equals `2`, a balance of `505` tokens should\r\n     * be displayed to a user as `5.05` (`505 / 10 ** 2`).\r\n     *\r\n     * Tokens usually opt for a value of 18, imitating the relationship between\r\n     * Ether and Wei. This is the value {ERC20} uses, unless this function is\r\n     * overridden;\r\n     *\r\n     * NOTE: This information is only used for _display_ purposes: it in\r\n     * no way affects any of the arithmetic of the contract, including\r\n     * {IERC20-balanceOf} and {IERC20-transfer}.\r\n     */\r\n    function decimals() public view virtual override returns (uint8) {\r\n        return 18;\r\n    }\r\n\r\n    /**\r\n     * @dev See {IERC20-totalSupply}.\r\n     */\r\n    function totalSupply() public view virtual override returns (uint256) {\r\n        return _totalSupply;\r\n    }\r\n\r\n    /**\r\n     * @dev See {IERC20-balanceOf}.\r\n     */\r\n    function balanceOf(\r\n        address account\r\n    ) public view virtual override returns (uint256) {\r\n        return _balances[account];\r\n    }\r\n\r\n    /**\r\n     * @dev See {IERC20-transfer}.\r\n     *\r\n     * Requirements:\r\n     *\r\n     * - `to` cannot be the zero address.\r\n     * - the caller must have a balance of at least `amount`.\r\n     */\r\n    function transfer(\r\n        address to,\r\n        uint256 amount\r\n    ) public virtual override returns (bool) {\r\n        address owner = _msgSender();\r\n        _transfer(owner, to, amount);\r\n        return true;\r\n    }\r\n\r\n    /**\r\n     * @dev See {IERC20-allowance}.\r\n     */\r\n    function allowance(\r\n        address owner,\r\n        address spender\r\n    ) public view virtual override returns (uint256) {\r\n        return _allowances[owner][spender];\r\n    }\r\n\r\n    /**\r\n     * @dev See {IERC20-approve}.\r\n     *\r\n     * NOTE: If `amount` is the maximum `uint256`, the allowance is not updated on\r\n     * `transferFrom`. This is semantically equivalent to an infinite approval.\r\n     *\r\n     * Requirements:\r\n     *\r\n     * - `spender` cannot be the zero address.\r\n     */\r\n    function approve(\r\n        address spender,\r\n        uint256 amount\r\n    ) public virtual override returns (bool) {\r\n        address owner = _msgSender();\r\n        _approve(owner, spender, amount);\r\n        return true;\r\n    }\r\n\r\n    /**\r\n     * @dev See {IERC20-transferFrom}.\r\n     *\r\n     * Emits an {Approval} event indicating the updated allowance. This is not\r\n     * required by the EIP. See the note at the beginning of {ERC20}.\r\n     *\r\n     * NOTE: Does not update the allowance if the current allowance\r\n     * is the maximum `uint256`.\r\n     *\r\n     * Requirements:\r\n     *\r\n     * - `from` and `to` cannot be the zero address.\r\n     * - `from` must have a balance of at least `amount`.\r\n     * - the caller must have allowance for ``from``'s tokens of at least\r\n     * `amount`.\r\n     */\r\n    function transferFrom(\r\n        address from,\r\n        address to,\r\n        uint256 amount\r\n    ) public virtual override returns (bool) {\r\n        address spender = _msgSender();\r\n        _spendAllowance(from, spender, amount);\r\n        _transfer(from, to, amount);\r\n        return true;\r\n    }\r\n\r\n    /**\r\n     * @dev Atomically increases the allowance granted to `spender` by the caller.\r\n     *\r\n     * This is an alternative to {approve} that can be used as a mitigation for\r\n     * problems described in {IERC20-approve}.\r\n     *\r\n     * Emits an {Approval} event indicating the updated allowance.\r\n     *\r\n     * Requirements:\r\n     *\r\n     * - `spender` cannot be the zero address.\r\n     */\r\n    function increaseAllowance(\r\n        address spender,\r\n        uint256 addedValue\r\n    ) public virtual returns (bool) {\r\n        address owner = _msgSender();\r\n        _approve(owner, spender, allowance(owner, spender) + addedValue);\r\n        return true;\r\n    }\r\n\r\n    /**\r\n     * @dev Atomically decreases the allowance granted to `spender` by the caller.\r\n     *\r\n     * This is an alternative to {approve} that can be used as a mitigation for\r\n     * problems described in {IERC20-approve}.\r\n     *\r\n     * Emits an {Approval} event indicating the updated allowance.\r\n     *\r\n     * Requirements:\r\n     *\r\n     * - `spender` cannot be the zero address.\r\n     * - `spender` must have allowance for the caller of at least\r\n     * `subtractedValue`.\r\n     */\r\n    function decreaseAllowance(\r\n        address spender,\r\n        uint256 subtractedValue\r\n    ) public virtual returns (bool) {\r\n        address owner = _msgSender();\r\n        uint256 currentAllowance = allowance(owner, spender);\r\n        require(\r\n            currentAllowance >= subtractedValue,\r\n            \"ERC20: decreased allowance below zero\"\r\n        );\r\n        unchecked {\r\n            _approve(owner, spender, currentAllowance - subtractedValue);\r\n        }\r\n\r\n        return true;\r\n    }\r\n\r\n    /**\r\n     * @dev Moves `amount` of tokens from `sender` to `recipient`.\r\n     *\r\n     * This internal function is equivalent to {transfer}, and can be used to\r\n     * e.g. implement automatic token fees, slashing mechanisms, etc.\r\n     *\r\n     * Emits a {Transfer} event.\r\n     *\r\n     * Requirements:\r\n     *\r\n     * - `from` cannot be the zero address.\r\n     * - `to` cannot be the zero address.\r\n     * - `from` must have a balance of at least `amount`.\r\n     */\r\n    function _transfer(\r\n        address from,\r\n        address to,\r\n        uint256 amount\r\n    ) internal virtual {\r\n        require(from != address(0), \"ERC20: transfer from the zero address\");\r\n        require(to != address(0), \"ERC20: transfer to the zero address\");\r\n\r\n        _beforeTokenTransfer(from, to, amount);\r\n\r\n        uint256 fromBalance = _balances[from];\r\n        require(\r\n            fromBalance >= amount,\r\n            \"ERC20: transfer amount exceeds balance\"\r\n        );\r\n        unchecked {\r\n            _balances[from] = fromBalance - amount;\r\n        }\r\n        _balances[to] += amount;\r\n\r\n        emit Transfer(from, to, amount);\r\n\r\n        _afterTokenTransfer(from, to, amount);\r\n    }\r\n\r\n    /** @dev Creates `amount` tokens and assigns them to `account`, increasing\r\n     * the total supply.\r\n     *\r\n     * Emits a {Transfer} event with `from` set to the zero address.\r\n     *\r\n     * Requirements:\r\n     *\r\n     * - `account` cannot be the zero address.\r\n     */\r\n    function _mint(address account, uint256 amount) internal virtual {\r\n        require(account != address(0), \"ERC20: mint to the zero address\");\r\n\r\n        _beforeTokenTransfer(address(0), account, amount);\r\n\r\n        _totalSupply += amount;\r\n        _balances[account] += amount;\r\n        emit Transfer(address(0), account, amount);\r\n\r\n        _afterTokenTransfer(address(0), account, amount);\r\n    }\r\n\r\n    /**\r\n     * @dev Destroys `amount` tokens from `account`, reducing the\r\n     * total supply.\r\n     *\r\n     * Emits a {Transfer} event with `to` set to the zero address.\r\n     *\r\n     * Requirements:\r\n     *\r\n     * - `account` cannot be the zero address.\r\n     * - `account` must have at least `amount` tokens.\r\n     */\r\n    function _burn(address account, uint256 amount) internal virtual {\r\n        require(account != address(0), \"ERC20: burn from the zero address\");\r\n\r\n        _beforeTokenTransfer(account, address(0), amount);\r\n\r\n        uint256 accountBalance = _balances[account];\r\n        require(accountBalance >= amount, \"ERC20: burn amount exceeds balance\");\r\n        unchecked {\r\n            _balances[account] = accountBalance - amount;\r\n        }\r\n        _totalSupply -= amount;\r\n\r\n        emit Transfer(account, address(0), amount);\r\n\r\n        _afterTokenTransfer(account, address(0), amount);\r\n    }\r\n\r\n    /**\r\n     * @dev Sets `amount` as the allowance of `spender` over the `owner` s tokens.\r\n     *\r\n     * This internal function is equivalent to `approve`, and can be used to\r\n     * e.g. set automatic allowances for certain subsystems, etc.\r\n     *\r\n     * Emits an {Approval} event.\r\n     *\r\n     * Requirements:\r\n     *\r\n     * - `owner` cannot be the zero address.\r\n     * - `spender` cannot be the zero address.\r\n     */\r\n    function _approve(\r\n        address owner,\r\n        address spender,\r\n        uint256 amount\r\n    ) internal virtual {\r\n        require(owner != address(0), \"ERC20: approve from the zero address\");\r\n        require(spender != address(0), \"ERC20: approve to the zero address\");\r\n\r\n        _allowances[owner][spender] = amount;\r\n        emit Approval(owner, spender, amount);\r\n    }\r\n\r\n    /**\r\n     * @dev Updates `owner` s allowance for `spender` based on spent `amount`.\r\n     *\r\n     * Does not update the allowance amount in case of infinite allowance.\r\n     * Revert if not enough allowance is available.\r\n     *\r\n     * Might emit an {Approval} event.\r\n     */\r\n    function _spendAllowance(\r\n        address owner,\r\n        address spender,\r\n        uint256 amount\r\n    ) internal virtual {\r\n        uint256 currentAllowance = allowance(owner, spender);\r\n        if (currentAllowance != type(uint256).max) {\r\n            require(\r\n                currentAllowance >= amount,\r\n                \"ERC20: insufficient allowance\"\r\n            );\r\n            unchecked {\r\n                _approve(owner, spender, currentAllowance - amount);\r\n            }\r\n        }\r\n    }\r\n\r\n    /**\r\n     * @dev Hook that is called before any transfer of tokens. This includes\r\n     * minting and burning.\r\n     *\r\n     * Calling conditions:\r\n     *\r\n     * - when `from` and `to` are both non-zero, `amount` of ``from``'s tokens\r\n     * will be transferred to `to`.\r\n     * - when `from` is zero, `amount` tokens will be minted for `to`.\r\n     * - when `to` is zero, `amount` of ``from``'s tokens will be burned.\r\n     * - `from` and `to` are never both zero.\r\n     *\r\n     * To learn more about hooks, head to xref:ROOT:extending-contracts.adoc#using-hooks[Using Hooks].\r\n     */\r\n    function _beforeTokenTransfer(\r\n        address from,\r\n        address to,\r\n        uint256 amount\r\n    ) internal virtual {}\r\n\r\n    /**\r\n     * @dev Hook that is called after any transfer of tokens. This includes\r\n     * minting and burning.\r\n     *\r\n     * Calling conditions:\r\n     *\r\n     * - when `from` and `to` are both non-zero, `amount` of ``from``'s tokens\r\n     * has been transferred to `to`.\r\n     * - when `from` is zero, `amount` tokens have been minted for `to`.\r\n     * - when `to` is zero, `amount` of ``from``'s tokens have been burned.\r\n     * - `from` and `to` are never both zero.\r\n     *\r\n     * To learn more about hooks, head to xref:ROOT:extending-contracts.adoc#using-hooks[Using Hooks].\r\n     */\r\n    function _afterTokenTransfer(\r\n        address from,\r\n        address to,\r\n        uint256 amount\r\n    ) internal virtual {}\r\n}\r\n\r\nabstract contract ReentrancyGuard {\r\n    // word because each write operation emits an extra SLOAD to first read the\r\n    // back. This is the compiler's defense against contract upgrades and\r\n\r\n    // but in exchange the refund on every call to nonReentrant will be lower in\r\n    // transaction's gas, it is best to keep them low in cases like this one, to\r\n    uint256 private constant _NOT_ENTERED = 1;\r\n    uint256 private constant _ENTERED = 2;\r\n\r\n    uint256 private _status;\r\n\r\n    constructor() {\r\n        _status = _NOT_ENTERED;\r\n    }\r\n\r\n    modifier nonReentrant() {\r\n        require(_status != _ENTERED, \"ReentrancyGuard: reentrant call\");\r\n        _status = _ENTERED;\r\n\r\n        _;\r\n        // https://eips.ethereum.org/EIPS/eip-2200)\r\n        _status = _NOT_ENTERED;\r\n    }\r\n}\r\n// File: contracts/Gummies/GummiesStaking.sol\r\n\r\n//SPDX-License-Identifier: MIT\r\npragma solidity ^0.8.0;\r\n\r\ncontract Staking is Ownable, ReentrancyGuard {\r\n    using SafeMath for uint256;\r\n    bool paused = false;\r\n\r\n    //Staking Variables\r\n    uint256 public totalNftStaked = 0;\r\n    mapping(address => uint256) private _balances;\r\n    mapping(address => uint256) public lastClaimTime;\r\n\r\n    //Collection Variables\r\n    IERC721 public nft;\r\n    uint256 public STAKINGREWARD = 240 ether;\r\n    uint256 public STAKINGREWARD_1to1 = 1000 ether;\r\n    mapping(uint256 => address) public tokenIdOwners;\r\n    mapping(address => uint256) public numberTokensStaked;\r\n    mapping(address => uint256) public number1to1TokensStaked;\r\n    mapping(address => mapping(uint256 => uint256)) public ownerTokenIds;\r\n\r\n    uint256[] list_of_1to1s = [\r\n        60,\r\n        117,\r\n        137,\r\n        253,\r\n        351,\r\n        508,\r\n        558,\r\n        571,\r\n        587,\r\n        613,\r\n        711,\r\n        773,\r\n        826,\r\n        891,\r\n        941,\r\n        945,\r\n        972,\r\n        990,\r\n        996,\r\n        1000,\r\n        1107,\r\n        1227,\r\n        1285,\r\n        1334,\r\n        1430,\r\n        4659,\r\n        1960,\r\n        2083,\r\n        2353,\r\n        2753,\r\n        2754,\r\n        2862,\r\n        2928,\r\n        3382,\r\n        3545,\r\n        3612,\r\n        4231,\r\n        4496,\r\n        5196,\r\n        5433\r\n    ];\r\n\r\n    modifier updateReward(address account) {\r\n        uint256 reward = getRewards(account);\r\n        lastClaimTime[account] = block.timestamp;\r\n        _balances[account] += reward;\r\n        _;\r\n    }\r\n    mapping(address => bool) public allowedList;\r\n    modifier onlyFutureAdmin() {\r\n        require(\r\n            allowedList[_msgSender()],\r\n            \"Ownable: caller is not the Allowed\"\r\n        );\r\n        _;\r\n    }\r\n\r\n    constructor(address _nftAddress) {\r\n        nft = IERC721(_nftAddress);\r\n    }\r\n\r\n    function editAllowList(address val, bool permission) public onlyOwner {\r\n        allowedList[val] = permission;\r\n    }\r\n\r\n    function addPoints(address _to, uint val) public onlyFutureAdmin {\r\n        require(val > 0, \"Value cannot be zero.\");\r\n        _balances[_to] = _balances[_to] + val;\r\n    }\r\n\r\n    function removePoints(\r\n        address _to,\r\n        uint val\r\n    ) public updateReward(_to) onlyFutureAdmin {\r\n        require(\r\n            _balances[_to] >= val,\r\n            \"Deduction amount should be greater than balance.\"\r\n        );\r\n        _balances[_to] = _balances[_to] - val;\r\n    }\r\n\r\n    function is_1to1(uint num) public view returns (bool) {\r\n        for (uint i = 0; i < list_of_1to1s.length; i++) {\r\n            if (list_of_1to1s[i] == num) {\r\n                return true;\r\n            }\r\n        }\r\n        return false;\r\n    }\r\n\r\n    //Setter Functions\r\n    function set_Staking_Reward_In_Wei(uint256 val) public onlyOwner {\r\n        STAKINGREWARD = val;\r\n    }\r\n\r\n    function setNftAddress(address val) public onlyOwner {\r\n        nft = IERC721(val);\r\n    }\r\n\r\n    function getPerDayLegendayRewards(\r\n        address account\r\n    ) public view returns (uint256) {\r\n        uint legendary_reward = number1to1TokensStaked[account] *\r\n            STAKINGREWARD_1to1;\r\n        return legendary_reward;\r\n    }\r\n\r\n    function rewardsPerDay(address account) public view returns (uint256) {\r\n        uint cRewards = (numberTokensStaked[account]) * STAKINGREWARD;\r\n        uint legendary_reward = getPerDayLegendayRewards(account);\r\n        uint256 totalReward = cRewards + legendary_reward;\r\n        return totalReward;\r\n    }\r\n\r\n    function getRewards(address account) internal view returns (uint256) {\r\n        uint cRewards = (numberTokensStaked[account]) * STAKINGREWARD;\r\n        uint legendary_reward = getPerDayLegendayRewards(account);\r\n        uint256 totalReward = cRewards + legendary_reward;\r\n\r\n        uint256 _lastClaimed = lastClaimTime[account];\r\n        return totalReward.mul(block.timestamp.sub(_lastClaimed)).div(86400);\r\n    }\r\n\r\n    function viewRewards(address account) public view returns (uint256) {\r\n        // Total Earned Rewards\r\n        uint256 pendingReward = getRewards(account);\r\n        return pendingReward + _balances[account];\r\n    }\r\n\r\n    function getUserstakedNftIds(\r\n        address _user\r\n    ) public view returns (uint256[] memory) {\r\n        uint256 len = numberTokensStaked[_user] + number1to1TokensStaked[_user];\r\n        uint256[] memory temp = new uint[](len);\r\n        for (uint256 i = 0; i < len; ++i) {\r\n            temp[i] = ownerTokenIds[_user][i];\r\n        }\r\n        return temp;\r\n    }\r\n\r\n    function stakeNfts(\r\n        uint256[] calldata tokenIds\r\n    ) external updateReward(msg.sender) nonReentrant {\r\n        require(!paused, \"Contract is paused\");\r\n        require(\r\n            IERC721(nft).isApprovedForAll(msg.sender, address(this)),\r\n            \"Approve Nfts First\"\r\n        );\r\n        require(tokenIds.length > 0, \"0 Nfts to Stake\");\r\n\r\n        unchecked {\r\n            uint256 len = tokenIds.length;\r\n            uint256 numStaked = numberTokensStaked[msg.sender];\r\n            uint256 num_1to1_staked = number1to1TokensStaked[msg.sender];\r\n            uint256 total_Staked_by_user = numStaked + num_1to1_staked;\r\n            for (uint256 i = 0; i < len; i++) {\r\n                uint256 tokenId = tokenIds[i];\r\n                require(\r\n                    IERC721(nft).ownerOf(tokenId) == msg.sender,\r\n                    \"You are not owner of this nft.\"\r\n                );\r\n\r\n                if (is_1to1(tokenId)) {\r\n                    num_1to1_staked++;\r\n                } else {\r\n                    numStaked++;\r\n                }\r\n                tokenIdOwners[tokenId] = msg.sender;\r\n                ownerTokenIds[msg.sender][total_Staked_by_user] = tokenId;\r\n                total_Staked_by_user++;\r\n                totalNftStaked++;\r\n                nft.transferFrom(msg.sender, address(this), tokenId);\r\n            }\r\n            numberTokensStaked[msg.sender] = numStaked;\r\n            number1to1TokensStaked[msg.sender] = num_1to1_staked;\r\n        }\r\n    }\r\n\r\n    function unstakeNfts(\r\n        uint256[] calldata tokenIds\r\n    ) external updateReward(msg.sender) nonReentrant {\r\n        require(!paused, \"Contract is paused\");\r\n        require(tokenIds.length > 0, \"0 Nfts to Stake\");\r\n\r\n        uint256 len = tokenIds.length;\r\n\r\n        for (uint256 i = 0; i < len; i++) {\r\n            uint256 tokenId = tokenIds[i];\r\n\r\n            require(\r\n                tokenIdOwners[tokenId] == msg.sender,\r\n                \"You dont own this ID\"\r\n            );\r\n            require(\r\n                IERC721(nft).ownerOf(tokenId) == address(this),\r\n                \"Nft not available in the contract\"\r\n            );\r\n            removeFromUserStakedTokens(msg.sender, tokenId);\r\n\r\n            if (is_1to1(tokenId)) {\r\n                number1to1TokensStaked[msg.sender]--;\r\n            } else {\r\n                numberTokensStaked[msg.sender]--;\r\n            }\r\n            totalNftStaked--;\r\n            delete tokenIdOwners[tokenId];\r\n            nft.transferFrom(address(this), msg.sender, tokenId);\r\n        }\r\n    }\r\n\r\n    function togglePause() public onlyOwner {\r\n        paused = !paused;\r\n    }\r\n\r\n    function removeFromUserStakedTokens(\r\n        address user,\r\n        uint256 tokenId\r\n    ) internal {\r\n        uint256 _numStaked = numberTokensStaked[user];\r\n        uint256 _1to1numStaked = number1to1TokensStaked[user];\r\n\r\n        uint256 totalnum = _1to1numStaked + _numStaked;\r\n\r\n        for (uint256 j = 0; j < totalnum; ++j) {\r\n            if (ownerTokenIds[user][j] == tokenId) {\r\n                uint256 lastIndex = totalnum - 1;\r\n                ownerTokenIds[user][j] = ownerTokenIds[user][lastIndex];\r\n                delete ownerTokenIds[user][lastIndex];\r\n                break;\r\n            }\r\n        }\r\n    }\r\n}\r\n",
  "sourcePath": "F:\\Fiverr Projects\\contract-raffle-auction\\contracts\\Staking.sol",
  "compiler": {
    "name": "solc",
    "version": "0.8.0+commit.c7dfd78e.Emscripten.clang"
  },
  "schemaVersion": "3.4.14",
  "updatedAt": "2023-07-27T21:09:25.568Z",
  "networkType": "ethereum",
  "devdoc": {
    "kind": "dev",
    "methods": {
      "owner()": {
        "details": "Returns the address of the current owner."
      },
      "renounceOwnership()": {
        "details": "Leaves the contract without owner. It will not be possible to call `onlyOwner` functions anymore. Can only be called by the current owner. NOTE: Renouncing ownership will leave the contract without an owner, thereby removing any functionality that is only available to the owner."
      },
      "transferOwnership(address)": {
        "details": "Transfers ownership of the contract to a new account (`newOwner`). Can only be called by the current owner."
      }
    },
    "version": 1
  },
  "userdoc": {
    "kind": "user",
    "methods": {},
    "version": 1
  }
}